:100000000C942A000C943C000C943C000C943C0092
:100010000C943C000C943C000C943C000C943C0070
:100020000C943C000C94FB000C948A000C946F0020
:100030000C943C000C943C000C943C000C943C0050
:100040000C943C000C943C000C943C000C943C0040
:100050000C943C0011241FBECFE5D8E0DEBFCDBF1D
:1000600020E0A0E6B0E001C01D92AE36B207E1F795
:100070000E94A2070C94BC070C94000087E689B983
:1000800088E18AB98EE880BD08950E943E008FEF16
:100090008ABB88E087BBA69A81B38E6F81BB85B38C
:1000A000836885BB109264001092630081E08093A6
:1000B0006D0010926700109268008DE080936C00D4
:1000C00082EC90E090936A008093690087EF90E063
:1000D000909366008093650010926B0008951F92C4
:1000E0000F920FB60F9211248F939F93809162000D
:1000F0008F5F809362008A3031F498B388E089275B
:1001000088BB109262009F918F910F900FBE0F904D
:100110001F9018951F920F920FB60F9211242F93D4
:100120008F939F93809160009091610001969093CE
:10013000610080936000C29724F09BB384E089271C
:100140008BBB8091600090916100883E934031F4B8
:1001500080E18CBF9BB384E089278BBB80916000DA
:1001600090916100803D974034F087E98CBF9BB34C
:1001700084E089278BBB9F918F912F910F900FBEA9
:100180000F901F90189580916D008F5F80936D0088
:10019000909167009F5F9D3318F49093670007C0AC
:1001A00010926700909168009F5F90936800909113
:1001B00068009D3010F0109268008D3018F081E0DA
:1001C00080936D00809167008F30A0F080916C006B
:1001D0008F5F80936C00813158F0AE9A8DE08093F0
:1001E0006C008FE39CE90197F1F700C00000AE9826
:1001F0001092670008951F920F920FB60F9211246C
:100200002F933F934F935F936F937F938F939F931E
:10021000AF93BF93EF93FF9380916300909164003D
:10022000019690936400809363009BB381E08927DB
:100230008BBB87EF92EC9DBD8CBD0E94C300FF91EC
:10024000EF91BF91AF919F918F917F916F915F914E
:100250004F913F912F910F900FBE0F901F901895C7
:10026000613099F442B321E030E0B90102C0660F79
:10027000771F8A95E2F7CB01842B82BB8FE99FE041
:100280000197F1F700C00000089561110DC042B35D
:1002900021E030E0B90102C0660F771F8A95E2F7CE
:1002A000CB018095842382BB0895613099F44BB3D0
:1002B00021E030E0B90102C0660F771F8A95E2F7AE
:1002C000CB01842B8BBB8FE99FE00197F1F700C036
:1002D0000000089561110DC04BB321E030E0B90179
:1002E00002C0660F771F8A95E2F7CB0180958423C1
:1002F0008BBB089560E084E00E94550160E086E0D9
:100300000E94550160E087E00E94550160E085E0B1
:100310000E94550160E082E090E00E94300160E0C0
:1003200083E090E00E94300160E087E090E00E946E
:10033000300160E084E090E00E9430010895CF93A6
:10034000C82F813009F05DC061E082E090E00E943A
:10035000300160E084E00E94550160E086E00E9488
:10036000550161E087E00E94550160E085E00E9450
:1003700055010E947A0161E083E090E00E94300123
:1003800060E084E00E94550160E086E00E94550133
:1003900060E087E00E94550160E085E00E94550121
:1003A0000E947A0161E087E090E00E94300160E005
:1003B00084E00E94550160E086E00E94550160E003
:1003C00087E00E94550160E085E00E9455010E948F
:1003D0007A0161E084E090E00E94300160E084E016
:1003E0000E94550160E086E00E94550160E087E0D0
:1003F0000E94550160E085E00E9455010E947A014B
:10040000C0C0823009F05DC061E082E090E00E94EF
:10041000300160E084E00E94550160E086E00E94C7
:10042000550160E087E00E94550161E085E00E948F
:1004300055010E947A0161E083E090E00E94300162
:1004400060E084E00E94550160E086E00E94550172
:1004500060E087E00E94550160E085E00E94550160
:100460000E947A0161E087E090E00E94300160E044
:1004700084E00E94550160E086E00E94550160E042
:1004800087E00E94550160E085E00E9455010E94CE
:100490007A0161E084E090E00E94300160E084E055
:1004A0000E94550160E086E00E94550160E087E00F
:1004B0000E94550160E085E00E9455010E947A018A
:1004C000C0C0833009F05DC061E082E090E00E942E
:1004D000300160E084E00E94550160E086E00E9407
:1004E000550160E087E00E94550160E085E00E94D0
:1004F00055010E947A0161E083E090E00E943001A2
:1005000060E084E00E94550160E086E00E945501B1
:1005100060E087E00E94550161E085E00E9455019E
:100520000E947A0161E087E090E00E94300160E083
:1005300084E00E94550160E086E00E94550160E081
:1005400087E00E94550160E085E00E9455010E940D
:100550007A0161E084E090E00E94300160E084E094
:100560000E94550160E086E00E94550160E087E04E
:100570000E94550160E085E00E9455010E947A01C9
:10058000C0C0C43009F05DC061E082E090E00E942C
:10059000300160E084E00E94550160E086E00E9446
:1005A000550160E087E00E94550160E085E00E940F
:1005B00055010E947A0161E083E090E00E943001E1
:1005C00060E084E00E94550160E086E00E945501F1
:1005D00060E087E00E94550160E085E00E945501DF
:1005E0000E947A0161E087E090E00E94300160E0C3
:1005F00084E00E94550160E086E00E94550160E0C1
:1006000087E00E94550161E085E00E9455010E944B
:100610007A0161E084E090E00E94300160E084E0D3
:100620000E94550160E086E00E94550160E087E08D
:100630000E94550160E085E00E9455010E947A0108
:10064000C0C0C53009F05DC061E082E090E00E946A
:10065000300160E084E00E94550160E086E00E9485
:10066000550160E087E00E94550160E085E00E944E
:1006700055010E947A0161E083E090E00E94300120
:1006800060E084E00E94550160E086E00E94550130
:1006900060E087E00E94550160E085E00E9455011E
:1006A0000E947A0161E087E090E00E94300160E002
:1006B00084E00E94550160E086E00E94550160E000
:1006C00087E00E94550160E085E00E9455010E948C
:1006D0007A0161E084E090E00E94300160E084E013
:1006E0000E94550160E086E00E94550160E087E0CD
:1006F0000E94550161E085E00E9455010E947A0147
:10070000C0C0C63009F05DC061E082E090E00E94A8
:10071000300160E084E00E94550160E086E00E94C4
:10072000550160E087E00E94550160E085E00E948D
:1007300055010E947A0161E083E090E00E9430015F
:1007400060E084E00E94550160E086E00E9455016F
:1007500060E087E00E94550160E085E00E9455015D
:100760000E947A0161E087E090E00E94300160E041
:1007700084E00E94550160E086E00E94550160E03F
:1007800087E00E94550160E085E00E9455010E94CB
:100790007A0161E084E090E00E94300160E084E052
:1007A0000E94550160E086E00E94550161E087E00B
:1007B0000E94550160E085E00E9455010E947A0187
:1007C000C0C0C73009F05DC061E082E090E00E94E7
:1007D000300160E084E00E94550160E086E00E9404
:1007E000550160E087E00E94550160E085E00E94CD
:1007F00055010E947A0161E083E090E00E9430019F
:1008000060E084E00E94550160E086E00E945501AE
:1008100060E087E00E94550160E085E00E9455019C
:100820000E947A0161E087E090E00E94300160E080
:1008300084E00E94550160E086E00E94550160E07E
:1008400087E00E94550160E085E00E9455010E940A
:100850007A0161E084E090E00E94300160E084E091
:100860000E94550161E086E00E94550160E087E04A
:100870000E94550160E085E00E9455010E947A01C6
:10088000C0C0C83009F05DC061E082E090E00E9425
:10089000300160E084E00E94550160E086E00E9443
:1008A000550160E087E00E94550160E085E00E940C
:1008B00055010E947A0161E083E090E00E943001DE
:1008C00060E084E00E94550160E086E00E945501EE
:1008D00060E087E00E94550160E085E00E945501DC
:1008E0000E947A0161E087E090E00E94300160E0C0
:1008F00084E00E94550160E086E00E94550160E0BE
:1009000087E00E94550160E085E00E9455010E9449
:100910007A0161E084E090E00E94300161E084E0CF
:100920000E94550160E086E00E94550160E087E08A
:100930000E94550160E085E00E9455010E947A0105
:10094000C0C0C93009F05DC061E082E090E00E9463
:10095000300160E084E00E94550160E086E00E9482
:10096000550160E087E00E94550160E085E00E944B
:1009700055010E947A0161E083E090E00E9430011D
:1009800060E084E00E94550160E086E00E9455012D
:1009900060E087E00E94550160E085E00E9455011B
:1009A0000E947A0161E087E090E00E94300161E0FE
:1009B00084E00E94550160E086E00E94550160E0FD
:1009C00087E00E94550160E085E00E9455010E9489
:1009D0007A0161E084E090E00E94300160E084E010
:1009E0000E94550160E086E00E94550160E087E0CA
:1009F0000E94550160E085E00E9455010E947A0145
:100A0000C0C0CA3009F05DC061E082E090E00E94A1
:100A1000300160E084E00E94550160E086E00E94C1
:100A2000550160E087E00E94550160E085E00E948A
:100A300055010E947A0161E083E090E00E9430015C
:100A400061E084E00E94550160E086E00E9455016B
:100A500060E087E00E94550160E085E00E9455015A
:100A60000E947A0161E087E090E00E94300160E03E
:100A700084E00E94550160E086E00E94550160E03C
:100A800087E00E94550160E085E00E9455010E94C8
:100A90007A0161E084E090E00E94300160E084E04F
:100AA0000E94550160E086E00E94550160E087E009
:100AB0000E94550160E085E00E9455010E947A0184
:100AC000C0C0CB3009F05DC061E082E090E00E94E0
:100AD000300161E084E00E94550160E086E00E9400
:100AE000550160E087E00E94550160E085E00E94CA
:100AF00055010E947A0161E083E090E00E9430019C
:100B000060E084E00E94550160E086E00E945501AB
:100B100060E087E00E94550160E085E00E94550199
:100B20000E947A0161E087E090E00E94300160E07D
:100B300084E00E94550160E086E00E94550160E07B
:100B400087E00E94550160E085E00E9455010E9407
:100B50007A0161E084E090E00E94300160E084E08E
:100B60000E94550160E086E00E94550160E087E048
:100B70000E94550160E085E00E9455010E947A01C3
:100B8000C0C0CC3009F05DC061E082E090E00E941E
:100B9000300160E084E00E94550161E086E00E943F
:100BA000550160E087E00E94550160E085E00E9409
:100BB00055010E947A0161E083E090E00E943001DB
:100BC00060E084E00E94550160E086E00E945501EB
:100BD00060E087E00E94550160E085E00E945501D9
:100BE0000E947A0161E087E090E00E94300160E0BD
:100BF00084E00E94550160E086E00E94550160E0BB
:100C000087E00E94550160E085E00E9455010E9446
:100C10007A0161E084E090E00E94300160E084E0CD
:100C20000E94550160E086E00E94550160E087E087
:100C30000E94550160E085E00E9455010E947A0102
:100C4000C0C0CD3009F05DC061E082E090E00E945C
:100C5000300160E084E00E94550160E086E00E947F
:100C6000550160E087E00E94550160E085E00E9448
:100C700055010E947A0161E083E090E00E9430011A
:100C800060E084E00E94550160E086E00E9455012A
:100C900061E087E00E94550160E085E00E94550117
:100CA0000E947A0161E087E090E00E94300160E0FC
:100CB00084E00E94550160E086E00E94550160E0FA
:100CC00087E00E94550160E085E00E9455010E9486
:100CD0007A0161E084E090E00E94300160E084E00D
:100CE0000E94550160E086E00E94550160E087E0C7
:100CF0000E94550160E085E00E9455010E947A0142
:100D0000C0C0CE3009F05DC061E082E090E00E949A
:100D1000300160E084E00E94550160E086E00E94BE
:100D2000550160E087E00E94550160E085E00E9487
:100D300055010E947A0161E083E090E00E94300159
:100D400060E084E00E94550160E086E00E94550169
:100D500061E087E00E94550160E085E00E94550156
:100D60000E947A0161E087E090E00E94300160E03B
:100D700084E00E94550160E086E00E94550161E038
:100D800087E00E94550160E085E00E9455010E94C5
:100D90007A0161E084E090E00E94300160E084E04C
:100DA0000E94550160E086E00E94550160E087E006
:100DB0000E94550160E085E00E9455010E947A0181
:100DC000BFC0CF3009F05DC061E082E090E00E94DA
:100DD000300160E084E00E94550160E086E00E94FE
:100DE000550160E087E00E94550160E085E00E94C7
:100DF00055010E947A0161E083E090E00E94300199
:100E000060E084E00E94550160E086E00E945501A8
:100E100061E087E00E94550160E085E00E94550195
:100E20000E947A0161E087E090E00E94300160E07A
:100E300084E00E94550161E086E00E94550161E076
:100E400087E00E94550160E085E00E9455010E9404
:100E50007A0161E084E090E00E94300160E084E08B
:100E60000E94550160E086E00E94550160E087E045
:100E70000E94550160E085E00E9455010E947A01C0
:100E80005FC0C03109F05CC061E082E090E00E9488
:100E9000300160E084E00E94550160E086E00E943D
:100EA000550160E087E00E94550160E085E00E9406
:100EB00055010E947A0161E083E090E00E943001D8
:100EC00060E084E00E94550161E086E00E945501E7
:100ED00061E087E00E94550160E085E00E945501D5
:100EE0000E947A0161E087E090E00E94300160E0BA
:100EF00084E00E94550161E086E00E94550161E0B6
:100F000087E00E94550160E085E00E9455010E9443
:100F10007A0161E084E090E00E94300160E084E0CA
:100F20000E94550160E086E00E94550160E087E084
:100F30000E94550160E085E00E9455010E947A01FF
:100F4000CF91089587E089BF8DE083BF12BE8CE901
:100F50008CBF1FBC85E08EBD87EF92EC9DBD8CBD24
:100F60000E944500789480916D000E949F018091BD
:0C0F70006C000E949F01F7CFF894FFCFA7
:00000001FF
