:100000000C9482000C949F000C949F000C948E071B
:100010000C949F000C949F000C949F000C949F00E4
:100020000C94C1000C949F000C949F000C94A800A9
:100030000C949F000C949F000C949F000C949F00C4
:100040000C949F000C949F000C949F000C949F00B4
:100050000C949F000B0116015701570157015701DE
:1000600057012101570157012C0157015701370151
:1000700057015701570157015701420157015701D5
:10008000570157014D016F017A01850190019B01D4
:10009000A601B101BC01C701D201580258025802A1
:1000A0005802580258025802580258025802580280
:1000B0005802580258025802580258025802580270
:1000C0005802580258025802580258025802580260
:1000D0005802580258025802580258025802580250
:1000E0005802580258025802580258025802640135
:1000F0005802580258025802580258025802580230
:100100005802DD0111241FBECFE5D4E0DEBFCDBF14
:1001100011E0A0E6B0E0EEEEF0E102C005900D9235
:10012000A83CB107D9F721E0A8ECB1E001C01D92CD
:10013000A53DB207E1F70E94E3000C9475080C940A
:10014000000087E689B988E98AB986E880BD089504
:100150001F920F920FB60F9211248F938CB1809340
:10016000D0018F910F900FBE0F901F90189582BFF6
:1001700082E083BF08B600FEFDCF13BE81E088BFDA
:1001800008951F920F920FB60F9211248F939F9391
:100190008091CF018F5F8A301CF48093CF0107C01C
:1001A0001092CF018091D2018F5F8093D20187EFAF
:1001B00092EC9DBD8CBD78949F918F910F900FBE56
:1001C0000F901F9018950E94A10087B3806B87BB8A
:1001D00084E58DB981B3806B81BB85E08EBD87EFEF
:1001E00092EC9DBD8CBD89B7846889BF8BE083BFCD
:1001F0008FE085BD14BC13BC7894FFCF462F50E030
:10020000FA01E156F109E931F10508F050C0E65D67
:10021000FF4F0C946F08E091CC01F091CD01E81BE9
:10022000F90BEC53FF4F80818FB90895E091CC0119
:10023000F091CD01E81BF90BE055FF4F80818FB99C
:100240000895E091CC01F091CD01E81BF90BE85243
:10025000FF4F80818FB90895E091CC01F091CD01DD
:10026000E81BF90BE857FF4F80818FB90895E091A3
:10027000CC01F091CD01E81BF90BEC58FF4F8081C8
:100280008FB90895E091CC01F091CD01E81BF90BF5
:10029000E05AFF4F80818FB90895E091CC01F09131
:1002A000CD01E81BF90BE456FF4F80818FB908950B
:1002B000462F50E0FA01F097EF33F10508F0F8C04F
:1002C000ED5BFF4F0C946F08E091CC01F091CD01F4
:1002D000E81BF90BE056FE4F80818FB90895E0913D
:1002E000CC01F091CD01E81BF90BE451FF4F808167
:1002F0008FB90895E091CC01F091CD01E81BF90B85
:10030000EC54FE4F80818FB90895E091CC01F091BB
:10031000CD01E81BF90BE457FE4F80818FB908959A
:10032000E091CC01F091CD01E81BF90BE858FE4FAC
:1003300080818FB90895E091CC01F091CD01E81B47
:10034000F90BEC59FE4F80818FB90895E091CC01F3
:10035000F091CD01E81BF90BE05BFE4F80818FB976
:100360000895E091CC01F091CD01E81BF90BE45C1C
:10037000FE4F80818FB90895E091CC01F091CD01BD
:10038000E81BF90BE85DFE4F80818FB90895E0917D
:10039000CC01F091CD01E81BF90BEC5EFE4F8081A2
:1003A0008FB90895E091CC01F091CD01E81BF90BD4
:1003B000E050FF4F80818FB908952091CC0130919A
:1003C000CD01281B390B293031050CF062C0109289
:1003D000C90130E822B3206322BB22B3206322BBD1
:1003E00022B3206322BB22B3206322BB32BB949A88
:1003F000949A949A949A949A949A949A949A32BBCE
:10040000959A959A959A959A32BB2091C9012F5F3A
:100410002093C9012730F4F22091CC013091CD0115
:10042000281B390BA9014950510946305105D0F517
:100430001092C901959A959A959A959A2091C90119
:100440002F5F2093C9012730ACF320E822BB209115
:10045000CC013091CD01A901481B590BCA010F975E
:10046000059788F41092C9019AEA949A949A949AFA
:10047000949A9FB98091C9018F5F8093C901873099
:10048000A4F380E882BB80E882BB08951092C90182
:10049000D1CF2950310926303105C0F3D8CF109281
:1004A000C901E2CF2F50310925303105C0F3EBCF20
:1004B0000895CF93DF93EC01009709F08DC08091F0
:1004C000CC019091CD0106978F32914008F07BC10D
:1004D00012BA89EF90E00E94B70080E882BB9AE2EE
:1004E0009A95F1F700C082BB2AE12A95F1F700C086
:1004F00082BB8091CC019091CD019C0122533109A6
:100500002436310568F585E18A95F1F700001092EF
:10051000CB0180E020E230E88093CA018230C4F44D
:100520008091CC019091CD01C3978336910548F419
:1005300028BB32BB28BB32BB28BB32BB28BB32BB7B
:1005400028BB8091CA018F5F8093CA01823044F337
:100550008091CB018F5F8093CB018931ECF235C064
:100560009C01265931092C38310580F49AE19A957D
:10057000F1F700C01092CB0190E298BB8091CB01C3
:100580008F5F8093CB018230C4F31FC082529140B1
:100590000B97D8F41092CB0180E090E28093CA01CF
:1005A000823064F498BB25E02A95F1F70000809131
:1005B000CA018F5F8093CA018230A4F38091CB017E
:1005C0008F5F8093CB0189314CF380E882BB8AE056
:1005D0008A95F1F700C0F7C08130910509F089C014
:1005E0008091CC019091CD0106978F32914008F017
:1005F00025C212BA89EF90E00E94B70080E882BB62
:100600009AE29A95F1F700C082BB2AE12A95F1F7A8
:1006100000C082BB8091CC019091CD019C012253FE
:1006200031092436310548F585E18A95F1F7000056
:100630001092CB0180E020E230E88093CA01823042
:10064000A4F48091CC019091CD01C397833691059C
:1006500028F428BB32BB28BB32BB28BB8091CA011F
:100660008F5F8093CA01823064F38091CB018F5FEA
:100670008093CB0189310CF335C09C012659310997
:100680002C38310580F49AE19A95F1F700C0109268
:10069000CB0190E298BB8091CB018F5F8093CB011F
:1006A0008230C4F31FC0825291400B97D8F410924D
:1006B000CB0180E090E28093CA01823064F498BB61
:1006C00025E02A95F1F700008091CA018F5F8093A1
:1006D000CA018230A4F38091CB018F5F8093CB015C
:1006E00089314CF380E882BB8AE08A95F1F700C03B
:1006F000A5C1039709F067C08091CC019091CD010D
:1007000006978F32914008F0A1C312BA89EF90E0AA
:100710000E94B70080E882BB9AE29A95F1F700C088
:1007200082BB2AE12A95F1F700C080E288BB85E010
:100730008A95F1F700008091CC019091CD018E3B1C
:100740009105F4F41092CB0180E020E890E28093D0
:10075000CA0182306CF422BB98BB85E08A95F1F720
:1007600000008091CA018F5F8093CA0182309CF3A0
:100770008091CB018F5F8093CB01843144F31CC007
:10078000893C9105CCF01092CB0180E08093CA01A6
:1007900082305CF495E09A95F1F700008091CA01EF
:1007A0008F5F8093CA018230ACF38091CB018F5F61
:1007B0008093CB018E3154F380E882BB2AE02A95E6
:1007C000F1F700C043C3C430D10509F037C18091AF
:1007D000CC019091CD0106978F32914008F09BC3D8
:1007E00012BA89EF90E00E94B70080E882BB82BB1A
:1007F00082BB82BB90E298BB82BB98BB82BB98BB9A
:1008000082BB98BB82BB98BB82BB98BB82BB98BBA8
:1008100082BB98BB82BB98BB82BB98BB82BB98BB98
:1008200082BB98BB82BB98BB82BB98BB82BB98BB88
:1008300082BB98BB82BB80E28A95F1F78091CC01A4
:100840009091CD010A97D4F490E298BB25E32A95C4
:10085000F1F7000080E882BB98BB25E32A95F1F709
:10086000000082BB98BB25E32A95F1F7000082BB0C
:1008700098BB95E09A95F1F7000082BBC091CC013E
:10088000D091CD01CE0188974497C8F461E688E203
:1008900090E00E94FE0062E688E290E00E94FE0086
:1008A00068E688E290E00E94FE0061E688E290E05F
:1008B0000E94FE0069E788E290E00E94FE00CE01FF
:1008C000865491094497C8F461E686E490E00E945A
:1008D000FE0061E686E490E00E94FE0068E686E4A1
:1008E00090E00E94FE0061E686E490E00E94FE0037
:1008F00069E786E490E00E94FE00CE018F559109E1
:100900004497A0F461E38FE590E00E94580162E310
:100910008FE590E00E94580163E38FE590E00E942C
:10092000580164E38FE590E00E945801CE018D5795
:1009300091094497A0F465E38DE790E00E94580187
:1009400066E38DE790E00E94580167E38DE790E051
:100950000E94580168E38DE790E00E945801CE01A3
:1009600086599109449750F469E386E990E00E9422
:10097000580160E386E990E00E945801CE01845B53
:1009800091094497C8F461E684EB90E00E94FE0070
:1009900062E684EB90E00E94FE0068E684EB90E063
:1009A0000E94FE0061E684EB90E00E94FE0069E791
:1009B00084EB90E00E94FE00CE01825D9109449795
:1009C000C8F461E682ED90E00E94FE0062E682EDEE
:1009D00090E00E94FE0068E682ED90E00E94FE003A
:1009E00061E682ED90E00E94FE0069E782ED90E012
:1009F0000E94FE00C05FD1096497C8F461E680EFF1
:100A000090E00E94FE0062E680EF90E00E94FE000F
:100A100068E680EF90E00E94FE0061E680EF90E0E3
:100A20000E94FE0069E780EF90E00E94FE0080E8EF
:100A300082BB2AE02A95F1F700C06DC2C530D1050E
:100A400009F004C28091CC019091CD0106978F32BC
:100A5000914008F060C212BA8AEF90E00E94B7009D
:100A600080E882BB82BB82BB82BB82BB1092C90181
:100A700082B382BB8091C9018F5F8093C9018630A8
:100A8000BCF380E882BBC091CC01D091CD01CE01F6
:100A900088974497A0F56091D101605D88E290E06D
:100AA0000E9458016091CE01605D88E290E00E9452
:100AB000580164E688E290E00E9458016091D301F9
:100AC000605D88E290E00E9458016091D401605D11
:100AD00088E290E00E94580164E688E290E00E947B
:100AE00058016091D201605D88E290E00E94580157
:100AF0006091CF01605D88E290E00E945801CE01D4
:100B000086549109449790F561E386E490E00E9451
:100B1000580162E386E490E00E94580163E386E4B2
:100B200090E00E94580164E386E490E00E9458013E
:100B300065E386E490E00E94580166E386E490E075
:100B40000E94580167E386E490E00E94580168E340
:100B500086E490E00E94580169E386E490E00E94F8
:100B6000580160E386E490E00E945801CE018F5561
:100B70009109449790F561E38FE590E00E94580158
:100B800062E38FE590E00E94580163E38FE590E017
:100B90000E94580164E38FE590E00E94580165E3EC
:100BA0008FE590E00E94580166E38FE590E00E9497
:100BB000580167E38FE590E00E94580168E38FE5F4
:100BC00090E00E94580169E38FE590E00E9458018F
:100BD00060E38FE590E00E945801CE018D579109A6
:100BE000449790F561E38DE790E00E94580162E33D
:100BF0008DE790E00E94580163E38DE790E00E944A
:100C0000580164E38DE790E00E94580165E38DE7A9
:100C100090E00E94580166E38DE790E00E94580141
:100C200067E38DE790E00E94580168E38DE790E06C
:100C30000E94580169E38DE790E00E94580160E34B
:100C40008DE790E00E945801CE01865991094497A2
:100C500090F561E386E990E00E94580162E386E93D
:100C600090E00E94580163E386E990E00E945801F9
:100C700064E386E990E00E94580165E386E990E02C
:100C80000E94580166E386E990E00E94580167E3FC
:100C900086E990E00E94580168E386E990E00E94AE
:100CA000580169E386E990E00E94580160E386E913
:100CB00090E00E945801C45BD109649788F561E611
:100CC00084EB90E00E94FE0062E684EB90E00E94DC
:100CD000FE0068E684EB90E00E94FE0061E684EB93
:100CE00090E00E94FE0069E784EB90E00E94FE0025
:100CF00085E08A95F1F700006BE684EB90E00E94B6
:100D0000FE0061E684EB90E00E94FE006EE684EB5C
:100D100090E00E94FE0064E784EB90E00E94FE00F9
:100D2000C091CC01D091CD01CE01825D9109449753
:100D300090F561E382ED90E00E94580162E382ED5C
:100D400090E00E94580163E382ED90E00E94580118
:100D500064E382ED90E00E94580165E382ED90E04B
:100D60000E94580166E382ED90E00E94580167E31B
:100D700082ED90E00E94580168E382ED90E00E94CD
:100D8000580169E382ED90E00E94580160E382ED32
:100D900090E00E945801CE01805F91094497C8F409
:100DA00061E680EF90E00E94FE0062E680EF90E056
:100DB0000E94FE0068E680EF90E00E94FE0061E67F
:100DC00080EF90E00E94FE0069E780EF90E00E94D3
:100DD000FE00CE50D140649790F561E38EE091E043
:100DE0000E94580162E38EE091E00E94580163E3A3
:100DF0008EE091E00E94580164E38EE091E00E9451
:100E0000580165E38EE091E00E94580166E38EE0B0
:100E100091E00E94580167E38EE091E00E94580142
:100E200068E38EE091E00E94580169E38EE091E072
:100E30000E94580160E38EE091E00E94580180E832
:100E400082BB9AE09A95F1F700C065C0269709F039
:100E500062C08091CC019091CD0106978F32914074
:100E600008F059C012BA89EF90E00E94B70080E8FC
:100E700082BB9AE29A95F1F700C082BB25E02A95E1
:100E8000F1F700008091CC019091CD018E3B91054E
:100E900004F51092CB0180E030E820E29FEF8093D0
:100EA000CA01823074F432BB28BB9FB985E08A95B1
:100EB000F1F700008091CA018F5F8093CA018230F0
:100EC00094F38091CB018F5F8093CB0184313CF30D
:100ED0001CC0893C9105CCF01092CB0180E080933E
:100EE000CA0182305CF495E09A95F1F70000809198
:100EF000CA018F5F8093CA018230ACF38091CB012D
:100F00008F5F8093CB018E3154F380E882BB2AE05F
:100F10002A95F1F700C0DF91CF9108951F920F92AB
:100F20000FB60F9211242F933F934F935F936F93BC
:100F30007F938F939F93AF93BF93CF93EF93FF9341
:100F40008091CC019091CD010397ACF4C0E8C2BB75
:100F500089EF90E00E94B70012BA88EC90E00E94FE
:100F6000B700C2BB89EF90E00E94B70012BA88ECCC
:100F700090E00E94B7008091CC019091CD01039741
:100F80000497A8F412BA89EF90E00E94B700C0E875
:100F9000C2BB88EC90E00E94B70012BA89EF90E0E3
:100FA0000E94B700C2BB88EC90E00E94B70085E0C9
:100FB00090E00E9459028091D201863038F0109260
:100FC000D2018091D4018F5F8093D4018091D401AC
:100FD0008A3038F01092D4018091D3018F5F8093D2
:100FE000D3018091D301863038F01092D3018091E3
:100FF000CE018F5F8093CE018091CE018A3040F088
:101000001092CE018091D1018F5F8093D1010AC0EF
:101010009091D101923031F4843020F01092D101BE
:101020001092CE018091CC019091CD0185539140D9
:101030000397A8F412BA88EF90E00E94B700C0E8C6
:10104000C2BB89EF90E00E94B70012BA88EF90E02F
:101050000E94B700C2BB89EF90E00E94B700809168
:10106000CC019091CD0189339140C9F41092CD010A
:101070001092CC0112BA88EF90E00E94B700C0E84D
:10108000C2BB89EF90E00E94B70012BA88EF90E0EF
:101090000E94B700C2BB89EF90E00E94B700809128
:1010A000CC019091CD0101969093CD018093CC011C
:1010B0008091C8018F5F8093C801FF91EF91CF911C
:1010C000BF91AF919F918F917F916F915F914F9160
:1010D0003F912F910F900FBE0F901F901895EE0F1C
:0E10E000FF1F0590F491E02D0994F894FFCFC6
:1010EE00FCFC20202020202020202020202020203A
:1010FE0020202020C2C2C2C2E2A2A2A2A2B292921A
:10110E00929A8A8A8A8A8E86828282828484888849
:10111E009090E0E0909088888484828284848448D1
:10112E004848301010101010101010101010101021
:10113E00E0E0E0A0A0A0A0A0E0E0E0A0A0A0A0A021
:10114E00A0E0E0E0E0E0E0A0A0A0A0A0E0E0E0E011
:10115E00A0A0A0A0A0A0A0A0A0A0A0A0A0A0A0A081
:10116E00E0E0E0E0A0A0A0A0A0A0A0A0E0E0E0E071
:10117E00A0A0A0A0A0A0A0A0A0A0A0A0E0E0E0E061
:10118E00E0E0A0A0A0A0A0A0E0E020202020202051
:10119E0020202020E0E0E0A0A0A0A0A0A0E0E0E0C1
:1011AE00A0A0A0A0A0E0E0E0E0E0E0E02020202071
:1011BE002020404040404080808080808080808021
:1011CE0080808080808080E0A0A0A0A0A0A0E0E031
:1011DE00E0E0E0E08080808080E0E0E020202020E1
:1011EE002020E0E0A0A0A0A0A0A0A0A0A0E0E02071
:1011FE002020202020202020E0E0E02020202020A1
:10120E0020E0E0E02020202020E0E0E0E0E0E0E050
:10121E0020202020E0E0E0E08080808080E0E0E0A0
:10122E0000000000404000000000000000404000B0
:10123E0000000000404040404040404040404040A0
:08124E0040404040E0E0E0E018
:00000001FF
