S011000050414C7369676E616C2E73726563B8
S11300000C9482000C949F000C949F000C943D0768
S11300100C949F000C949F000C949F000C949F00E0
S11300200C94DB000C949F000C949F000C94C20071
S11300300C949F000C949F000C949F000C949F00C0
S11300400C949F000C949F000C949F000C949F00B0
S11300500C949F0044014F01D201D2015A01650161
S1130060D20170017B01D2018601D20191019C0170
S1130070D201D201D201A701B201BD01D201D20144
S1130080D201D201C801EA01F50100020B021602F5
S113009021022C02370242024D02D302D302D302C0
S11300A0D302D302D302D302D302D302D302D302A4
S11300B0D302D302D302D302D302D302D302D30294
S11300C0D302D302D302D302D302D302D302D30284
S11300D0D302D302D302D302D302D302D302D30274
S11300E0D302D302D302D302D302D302D302DF0159
S11300F0D302D302D302D302D302D302D302D30254
S1130100D302580211241FBECFE5D4E0DEBFCDBF19
S113011012E0A0E6B0E0EEE9F0E102C005900D9235
S1130120A639B107D9F722E0A6E9B2E001C01D92D1
S1130130A93BB207E1F70E94EE000C944D080C9421
S1130140000088E089B988E98AB986E880BD089505
S11301505D9BFECF8CB908950F931F93CF93FC0141
S11301608081882359F08F01C0E00E94A800CF5FEE
S1130170F801EC0FF11D80818111F7CFCF911F9110
S11301800F9108951F920F920FB60F9211248F931F
S11301908CB180939F028F910F900FBE0F901F9090
S11301A0189582BF82E083BF08B600FEFDCF13BE60
S11301B081E088BF08951F920F920FB60F92112409
S11301C08F939F9387EF92EC9DBD8CBD78949F9104
S11301D08F910F900FBE0F901F9018950E94A10051
S11301E0D09887B3806B87BB84E58DB981B3806B6E
S11301F081BB1ABA80E492E00E94AC008FE39FE1D5
S11302000197F1F700C0000087E492E00E94AC007F
S11302108FE39FE10197F1F700C0000085E592E0CC
S11302200E94AC008FE39FE10197F1F700C000004A
S11302308EE792E00E94AC008FE99FE00197F1F70E
S113024000C000008DE892E00E94AC0085E08EBD05
S113025087EF92EC9DBD8CBD89B7846889BF8BE024
S113026083BF8FE085BD14BC13BC7894FFCF462FA9
S113027050E0FA01E156F109E931F10508F092C0C4
S1130280E65DFF4F0C944708E0919B02F0919C02BD
S1130290E81BF90BE05BFE4F80818FB90895E09174
S11302A09B02F0919C02E81BF90BE45CFE4F8081F9
S11302B08FB90895E0919B02F0919C02E81BF90B21
S11302C0E85DFE4F80818FB90895E0919B02F09123
S11302D09C02E81BF90BEC5EFE4F80818FB90895F8
S11302E0E0919B02F0919C02E81BF90BE050FF4F58
S11302F080818FB90895E0919B02F0919C02E81BE4
S1130300F90BE451FF4F80818FB90895E0919B026E
S1130310F0919C02E81BF90BE852FF4F80818FB9E2
S11303200895E0919B02F0919C02E81BF90BEC53B9
S1130330FF4F80818FB90895E0919B02F0919C0258
S1130340E81BF90BE055FF4F80818FB90895E091C8
S11303509B02F0919C02E81BF90BE456FF4F80814D
S11303608FB90895E0919B02F0919C02E81BF90B70
S1130370E857FF4F80818FB90895E0919B02F09177
S11303809C02E81BF90BEC58FF4F80818FB908954C
S1130390E0919B02F0919C02E81BF90BE05AFF4F9D
S11303A080818FB90895462F50E0FA01F097EF331A
S11303B0F10508F0F8C0ED5BFF4F0C944708E0919D
S11303C09B02F0919C02E81BF90BE85EFD4F8081D3
S11303D08FB90895E0919B02F0919C02E81BF90B00
S11303E0EC59FE4F80818FB90895E0919B02F09102
S11303F09C02E81BF90BE45DFD4F80818FB90895E1
S1130400E0919B02F0919C02E81BF90BEC5FFD4F1D
S113041080818FB90895E0919B02F0919C02E81BC2
S1130420F90BE051FE4F80818FB90895E0919B0252
S1130430F0919C02E81BF90BE452FE4F80818FB9C6
S11304400895E0919B02F0919C02E81BF90BE8539C
S1130450FE4F80818FB90895E0919B02F0919C0238
S1130460E81BF90BEC54FE4F80818FB90895E0919D
S11304709B02F0919C02E81BF90BE056FE4F808131
S11304808FB90895E0919B02F0919C02E81BF90B4F
S1130490E457FE4F80818FB90895E0919B02F0915B
S11304A09C02E81BF90BE858FE4F80818FB9089530
S11304B020919B0230919C02281B390B2930310575
S11304C00CF062C01092980230E822B3206322BB81
S11304D022B3206322BB22B3206322BB22B3206356
S11304E022BB32BB949A949A949A949A949A949A2A
S11304F0949A949A32BB959A959A959A959A32BB06
S1130500209198022F5F209398022730F4F22091D3
S11305109B0230919C02281B390BA90149505109B7
S113052046305105D0F510929802959A959A959A6D
S1130530959A209198022F5F209398022730ACF36C
S113054020E822BB20919B0230919C02A901481B08
S1130550590BCA010F97059788F4109298029AEAEA
S1130560949A949A949A949A9FB9809198028F5FDE
S1130570809398028730A4F380E882BB80E882BB32
S1130580089510929802D1CF2950310926303105AF
S1130590C0F3D8CF10929802E2CF2F503109253002
S11305A03105C0F3EBCF08950F931F93CF93DF93DF
S11305B0EC01009709F08DC080919B0290919C0200
S11305C006978F32914008F0E4C112BA89EF90E0A7
S11305D00E94D10080E882BB9AE29A95F1F700C0AC
S11305E082BB2AE12A95F1F700C082BB80919B026D
S11305F090919C029C01225331092436310568F5FF
S113060085E18A95F1F7000010929A0280E020E2D9
S113061030E8809399028230C4F480919B029091D7
S11306209C02C3978336910548F428BB32BB28BB90
S113063032BB28BB32BB28BB32BB28BB809199029A
S11306408F5F80939902823044F380919A028F5F86
S113065080939A028931ECF235C09C012659310904
S11306602C38310580F49AE19A95F1F700C0109284
S11306709A0290E298BB80919A028F5F80939A02CB
S11306808230C4F31FC0825291400B97D8F4109269
S11306909A0280E090E280939902823064F498BBDD
S11306A025E02A95F1F70000809199028F5F8093ED
S11306B099028230A4F380919A028F5F80939A0208
S11306C089314CF380E882BB8AE08A95F1F700C057
S11306D060C18130910509F0CCC080919B0290915A
S11306E09C0206978F32914008F08EC212BA8AEFAC
S11306F090E00E94D10080E882BB82BB82BB82BBB7
S113070082BB1092980290E282B3892782BB8091C7
S113071098028F5F809398028630B4F380E882BB9E
S113072000919B0210919C02C80188974497A0F500
S11307306091B402605D88E290E00E94D301609110
S11307409D02605D88E290E00E94D30164E688E245
S113075090E00E94D3016091B702605D88E290E06E
S11307600E94D3016091B802605D88E290E00E942B
S1130770D30164E688E290E00E94D3016091B5025F
S1130780605D88E290E00E94D30160919E02605D0A
S113079088E290E00E94D301C8018D5791094497E3
S11307A0F0F466E68DE790E00E94370169E68DE794
S11307B090E00E9437016EE68DE790E00E943701D9
S11307C069E68DE790E00E94370163E78DE790E0EA
S11307D00E94370168E68DE790E00E9437010E50D1
S11307E011400431110588F561E68EE091E00E9424
S11307F0370162E68EE091E00E94370168E68EE000
S113080091E00E94370161E68EE091E00E94370199
S113081069E78EE091E00E94370185E08A95F1F75F
S113082000006BE68EE091E00E94370161E68EE005
S113083091E00E9437016EE68EE091E00E9437015C
S113084064E78EE091E00E94370180919B029091D1
S11308509C0282529140449728F480E288BB90EA3B
S11308609A95F1F780E882BB2AE02A95F1F700C057
S1130870CBC1039709F08DC080919B0290919C029B
S113088006978F32914008F08EC212BA8AEF90E038
S11308900E94D10080E882BB82BB82BB82BB82BB48
S11308A01092980290E282B3892782BB80919802C9
S11308B08F5F809398028630B4F380E882BB809186
S11308C09B0290919C029C012253310924363105EC
S11308D020F585E18A95F1F7000010929A0280E0F4
S11308E02EEF80939902843084F480919B0290913E
S11308F09C02C3978336910508F42FB9809199021D
S11309008F5F80939902843084F380919A028F5F81
S113091080939A0289312CF335C09C012659310900
S11309202837310580F49AE19A95F1F700C01092C6
S11309309A029EEF9FB980919A028F5F80939A02E8
S11309408230C4F31FC08E5091404F97D8F4109258
S11309509A0280E09EEF80939902833064F49FB9F9
S113096025E02A95F1F70000809199028F5F80932A
S113097099028330A4F380919A028F5F80939A0244
S113098089314CF380E882BB8AE08A95F1F700C094
S11309900AC2C430D10509F037C180919B029091FD
S11309A09C0206978F32914008F062C212BA89EF16
S11309B090E00E94D10080E882BB82BB82BB82BBF4
S11309C090E298BB82BB98BB82BB98BB82BB98BBAE
S11309D082BB98BB82BB98BB82BB98BB82BB98BBD3
S11309E082BB98BB82BB98BB82BB98BB82BB98BBC3
S11309F082BB98BB82BB98BB82BB98BB82BB98BBB3
S1130A0082BB80E28A95F1F780919B0290919C02CF
S1130A100A97D4F490E298BB25E32A95F1F70000F5
S1130A2080E882BB98BB25E32A95F1F7000082BBDE
S1130A3098BB25E32A95F1F7000082BB98BB95E0AB
S1130A409A95F1F7000082BBC0919B02D0919C0261
S1130A50CE0188974497C8F461E688E290E00E944A
S1130A60370162E688E290E00E94370168E688E296
S1130A7090E00E94370161E688E290E00E9437012D
S1130A8069E788E290E00E943701CE01865491091B
S1130A904497C8F461E686E490E00E94370161E679
S1130AA086E490E00E94370168E686E490E00E94C4
S1130AB0370161E686E490E00E94370169E786E445
S1130AC090E00E943701CE018F5591094497A0F41C
S1130AD061E38FE590E00E94D30162E38FE590E04B
S1130AE00E94D30163E38FE590E00E94D30164E3A5
S1130AF08FE590E00E94D301CE018D579109449770
S1130B00A0F465E38DE790E00E94D30166E38DE7EE
S1130B1090E00E94D30167E38DE790E00E94D30147
S1130B2068E38DE790E00E94D301CE0186599109D4
S1130B30449750F469E386E990E00E94D30160E3AE
S1130B4086E990E00E94D301CE01845B9109449729
S1130B50C8F461E684EB90E00E94370162E684EB1E
S1130B6090E00E94370168E684EB90E00E94370130
S1130B7061E684EB90E00E94370169E784EB90E042
S1130B800E943701CE01825D91094497C8F461E661
S1130B9082ED90E00E94370162E682ED90E00E94CF
S1130BA0370168E682ED90E00E94370161E682ED4C
S1130BB090E00E94370169E782ED90E00E943701DE
S1130BC0C05FD1096497C8F461E680EF90E00E94A9
S1130BD0370162E680EF90E00E94370168E680EF1B
S1130BE090E00E94370161E680EF90E00E943701B7
S1130BF069E780EF90E00E94370180E882BB2AE039
S1130C002A95F1F700C034C1C530D10509F0CBC035
S1130C1080919B0290919C0206978F32914008F03C
S1130C2027C112BA8AEF90E00E94D10080E882BB0B
S1130C3082BB82BB82BB1092980290E282B3892766
S1130C4082BB809198028F5F809398028630B4F3C0
S1130C5080E882BB8AE08A95F1F700C0C0919B02CC
S1130C60D0919C02CE0188974497A0F56091B4027C
S1130C70605D88E290E00E94D30160919D02605D16
S1130C8088E290E00E94D30164E688E290E00E944A
S1130C90D3016091B702605D88E290E00E94D301C5
S1130CA06091B802605D88E290E00E94D30164E63E
S1130CB088E290E00E94D3016091B502605D88E211
S1130CC090E00E94D30160919E02605D88E290E012
S1130CD00E94D301CE018F5591094497C8F464E76B
S1130CE08FE590E00E94370169E68FE590E00E946D
S1130CF037016DE68FE590E00E94370165E68FE5E8
S1130D0090E00E94370162E78FE590E00E9437018E
S1130D10CE01805F9109449750F462E680EF90E041
S1130D200E94370169E780EF90E00E943701CE50BE
S1130D30D140649788F561E68EE091E00E94370126
S1130D4062E68EE091E00E94370168E68EE091E071
S1130D500E94370161E68EE091E00E94370169E765
S1130D608EE091E00E94370195E09A95F1F700003A
S1130D706BE68EE091E00E94370161E68EE091E03F
S1130D800E9437016EE68EE091E00E94370164E72D
S1130D908EE091E00E94370180E882BB2AE02A9528
S1130DA0F1F700C065C0269709F062C080919B02EC
S1130DB090919C0206978F32914008F059C012BA64
S1130DC089EF90E00E94D10080E882BB9AE29A9574
S1130DD0F1F700C082BB25E02A95F1F7000080916D
S1130DE09B0290919C028E3B910504F510929A020D
S1130DF080E030E820E29FEF80939902823074F41F
S1130E0032BB28BB9FB985E08A95F1F70000809139
S1130E1099028F5F80939902823094F380919A02B1
S1130E208F5F80939A0284313CF31CC0893C910506
S1130E30CCF010929A0280E08093990282305CF4A4
S1130E4095E09A95F1F70000809199028F5F809365
S1130E5099028230ACF380919A028F5F80939A0258
S1130E608E3154F380E882BB2AE02A95F1F700C062
S1130E70DF91CF911F910F9108951F920F920FB69A
S1130E800F9211242F933F934F935F936F937F930C
S1130E908F939F93AF93BF93CF93EF93FF938091DF
S1130EA09B0290919C020397ACF4C0E8C2BB89EF0B
S1130EB090E00E94D10012BA88EC90E00E94D10028
S1130EC0C2BB89EF90E00E94D10012BA88EC90E096
S1130ED00E94D10080919B0290919C0203970497F9
S1130EE0A8F412BA89EF90E00E94D100C0E8C2BB16
S1130EF088EC90E00E94D10012BA89EF90E00E9441
S1130F00D100C2BB88EC90E00E94D10080919E0287
S1130F108A303CF010929E028091B5028F5F8093DC
S1130F20B5028091B502863038F01092B5028091F6
S1130F30B8028F5F8093B8028091B8028A3038F08B
S1130F401092B8028091B7028F5F8093B7028091AC
S1130F50B702863038F01092B70280919D028F5FFD
S1130F6080939D0280919D028A3040F010929D02F0
S1130F708091B4028F5F8093B40214C09091B40244
S1130F80923039F4843028F01092B40210929D0209
S1130F9009C080919D02823028F081E090E00E9497
S1130FA0D40204C085E090E00E94D40280919B02A8
S1130FB090919C02855391400397A8F412BA88EF4C
S1130FC090E00E94D100C0E8C2BB89EF90E00E948B
S1130FD0D10012BA88EF90E00E94D100C2BB89EF21
S1130FE090E00E94D10080919B0290919C028933F1
S1130FF09140C9F410929C0210929B0212BA88EF9D
S113100090E00E94D100C0E8C2BB89EF90E00E944A
S1131010D10012BA88EF90E00E94D100C2BB89EFE0
S113102090E00E94D10080919B0290919C020196D5
S113103090939C0280939B028091960290919702D8
S113104089309D4349F480919E028F5F80939E0274
S113105010929702109296028091960290919702B4
S113106001969093970280939602FF91EF91CF910E
S1131070BF91AF919F918F917F916F915F914F91AC
S11310803F912F910F900FBE0F901F901895EE0F68
S1111090FF1F0590F491E02D0994F894FFCF12
S113109E848484484848301010101010101010101A
S11310AE10101010FCFC20202020202020202020B6
S11310BE2020202020202020FEFEC6C6C0C0C060F6
S11310CE303030381C0E0606C6C6FEFEFEFE828288
S11310DE8282A2FEFEE0B0909098888888888C86E2
S11310EEC2C2C2C2E2A2A2A2A2B29292929A8A8A66
S11310FE8A8A8E86C6C6C6C6EEAAAAB282828282A2
S113110E828282828282828282828282848488889D
S113111E9090E0E09090888884848282FEFE303045
S113112E30303030303030303030303030FCFCFE47
S113113EA0A0A0A0A0A0A0A0E0E0E0E0A0A0A0A09D
S113114EA0A0A0A0FEFE80808080FEFE8080808015
S113115E8080808080808080FEFE80808080808081
S113116E80FEFE80808080808080FEFEE0E0E0A035
S113117EA0A0A0A0E0E0E0A0A0A0A0A0A0E0E0E0DD
S113118EE0E0E0A0A0A0A0A0E0E0E0E0A0A0A0A08D
S113119EA0A0A0A07CC68282828282828282828267
S11311AE828282828282C67C7CC68282828282C64D
S11311BE7E0202020202020202020A04FE828282FB
S11311CE828282827E7E8282828282828282827CFB
S11311DEFE0202020604040C080818101010302037
S11311EE20604040C080808080808080FCC68282E7
S11311FE828282828282867C7C828080808080C091
S113120E7C060202020202020202867C8282828230
S113121E82828282FE0202020202020202020202A0
S113122EFEFE02020202020202FEFE02020202029C
S113123E0202FEFE003048C48602020202020E0CB6
S113124E182040808080FEFE000000004040000018
S113125E000000000040400000000000081828486C
S113126E8808080808080808080808080808FEFE80
S113127E415445300D0A0041542B4349504D5558A5
S113128E3D300D0A0041542B43495053544152549E
S113129E3D22554450222C223139322E3136382EED
S11312AE34332E3732222C363738390D0A00415456
S11312BE2B43495053454E443D350D0A0041424897
S10912CE41590D0A000065
S9030000FC
