S011000050414C7369676E616C2E73726563B8
S11300000C9469000C9486000C9486000C94DC0615
S11300100C9486000C9486000C9486000C94860044
S11300200C9492000C9486000C9486000C94860028
S11300300C9486000C9486000C9486000C94860024
S11300400C9486000C9486000C9486000C94860014
S11300500C9486004F016D018801A301BE01DC01EF
S1130060FA01180236025402EB02EB02EB02EB0235
S1130070EB02EB02EB02EB02EB02EB02EB02EB0214
S1130080EB02EB02EB02EB02EB02EB02EB02EB0204
S1130090EB02EB02EB02EB02EB02EB02EB02EB02F4
S11300A0EB02EB02EB02EB02EB02EB02EB02EB02E4
S11300B0EB02EB02EB02EB02EB02EB02EB02EB02D4
S11300C0EB02EB02EB02EB02EB02EB02EB02EB02C4
S11300D0720211241FBECFE5D4E0DEBFCDBF11E014
S11300E0A0E6B0E0E4E5FFE002C005900D92A83779
S11300F0B107D9F721E0A8E7B1E001C01D92A23809
S1130100B207E1F70E94B4000C94A8070C94000015
S113011082BF82E083BF08B600FEFDCF13BE81E03C
S113012088BF08951F920F920FB60F9211248F93D8
S11301309F9380917E018F5F8A301CF480937E01AF
S113014007C010927E0180917F018F5F80937F01B1
S113015087EF92EC9DBD8CBD78949F918F910F9009
S11301600FBE0F901F90189581B3806B81BB85E003
S11301708EBD87EF92EC9DBD8CBD89B7846889BF25
S11301808BE083BF8FE085BD14BC13BC7894FFCF94
S1130190623631F118F4613639F008956836E9F1C0
S11301A0693709F455C0089540E050E0E0917C01BE
S11301B0F0917D01E81BF90BE857FF4F208130E0F7
S11301C0042E02C0359527950A94E2F7207A22BBC3
S11301D04F5F5F4F4330510549F780E882BB089574
S11301E040E050E0E0917C01F0917D01E81BF90BC7
S11301F0EC58FF4F208130E0042E02C0359527953E
S11302000A94E2F7207A22BB4F5F5F4F43305105D7
S113021049F780E882BB12BA089540E050E0E091CB
S11302207C01F0917D01E81BF90BE456FF4F20811E
S113023030E0042E02C0359527950A94E2F722BBDC
S11302404F5F5F4F4330510551F780E882BB0895FB
S113025040E050E0E0917C01F0917D01E81BF90B56
S1130260E05AFF4F208130E0042E02C035952795D7
S11302700A94E2F722BB4F5F5F4F4330510551F7B9
S113028080E882BB0895462F50E0FA01F097EF33DF
S1130290F10508F0A0C1E65DFF4F0C94A20710928F
S11302A0790120E0E0917C01F0917D01E81BF90BDC
S11302B0E055FF4F408150E0BA0102C07595679543
S11302C02A95E2F762BB209179012F5F209379018F
S11302D0233044F380E882BB089540E050E0E0918D
S11302E07C01F0917D01E81BF90BEC59FE4F208154
S11302F030E0042E02C0359527950A94E2F722BB1C
S11303004F5F5F4F4330510551F780E882BB08953A
S113031040E050E0E0917C01F0917D01E81BF90B95
S1130320E05BFE4F208130E0042E02C03595279516
S11303300A94E2F722BB4F5F5F4F4330510551F7F8
S113034080E882BB089540E050E0E0917C01F091A8
S11303507D01E81BF90BE45CFE4F208130E0042EA4
S113036002C0359527950A94E2F722BB4F5F5F4F91
S11303704330510551F780E882BB0895109279010A
S113038020E0E0917C01F0917D01E81BF90BE85D30
S1130390FE4F408150E0BA0102C0759567952A95D9
S11303A0E2F762BB209179012F5F2093790123301A
S11303B044F380E882BB08951092790120E0E09133
S11303C07C01F0917D01E81BF90BEC5EFE4F40814E
S11303D050E0BA0102C0759567952A95E2F762BBB1
S11303E0209179012F5F20937901233044F380E831
S11303F082BB08951092790120E0E0917C01F09194
S11304007D01E81BF90BE050FF4F408150E0BA0139
S113041002C0759567952A95E2F762BB2091790130
S11304202F5F20937901233044F380E882BB089541
S11304301092790120E0E0917C01F0917D01E81BAC
S1130440F90BE451FF4F408150E0BA0102C07595A9
S113045067952A95E2F762BB209179012F5F20937B
S11304607901233044F380E882BB08951092790126
S113047020E0E0917C01F0917D01E81BF90BE8524A
S1130480FF4F408150E0BA0102C0759567952A95E7
S1130490E2F762BB209179012F5F20937901233029
S11304A044F380E882BB08951092790120E0E09142
S11304B07C01F0917D01E81BF90BEC53FF4F408167
S11304C050E0BA0102C0759567952A95E2F762BBC0
S11304D0209179012F5F20937901233044F380E840
S11304E082BB089520917C0130917D01281B390B3A
S11304F0293031050CF060C01092790130E822B344
S1130500206322BB22B3206322BB22B3206322BB1D
S113051022B3206322BB32BB949A949A949A949AFD
S1130520949A949A949A949A32BB959A959A959A95
S1130530959A32BB209179012F5F2093790127305E
S1130540F4F220917C0130917D01281B390BA90123
S11305504950510946305105C0F510927901959AD8
S1130560959A959A959A209179012F5F2093790114
S11305702730ACF320E822BB20917C0130917D012F
S1130580A901481B590BCA010F97059778F41092DB
S11305907901949A949A949A949A809179018F5FAC
S11305A0809379018730ACF380E882BB80E882BB1A
S11305B0089510927901D3CF29503109263031059D
S11305C0C0F3DACF10927901E4CF2F5031092530EE
S11305D03105C0F3EBCF0895CF93DF93EC0100977F
S11305E009F08DC080917C0190917D0106978F3236
S11305F0914008F07BC112BA89EF90E00E94880014
S113060080E882BB9AE29A95F1F700C082BB2AE1A6
S11306102A95F1F700C082BB80917C0190917D0105
S11306209C01225331092436310568F585E18A9508
S1130630F1F7000010927B0180E020E230E8809323
S11306407A018230C4F480917C0190917D01C3973A
S11306508336910548F422BB32BB22BB32BB22BB9A
S113066032BB22BB32BB22BB80917A018F5F809365
S11306707A01823044F380917B018F5F80937B0108
S11306808931ECF235C09C01265931092C383105E9
S113069080F49AE19A95F1F700C010927B0190E200
S11306A092BB80917B018F5F80937B018230C4F386
S11306B01FC0825291400B97D8F410927B0180E0C6
S11306C090E280937A01823064F492BB25E02A950B
S11306D0F1F7000080917A018F5F80937A01823074
S11306E0A4F380917B018F5F80937B0189314CF36C
S11306F080E882BB8AE08A95F1F700C0F7C08130B8
S1130700910509F089C080917C0190917D01069743
S11307108F32914008F025C212BA89EF90E00E940E
S1130720880080E882BB9AE29A95F1F700C082BB08
S11307302AE12A95F1F700C082BB80917C01909157
S11307407D019C01225331092436310548F585E1A8
S11307508A95F1F7000010927B0180E020E230E8F6
S113076080937A018230A4F480917C0190917D0180
S1130770C3978336910528F422BB32BB22BB32BB1C
S113078022BB80917A018F5F80937A01823064F377
S113079080917B018F5F80937B0189310CF335C09D
S11307A09C01265931092C38310580F49AE19A9537
S11307B0F1F700C010927B0190E292BB80917B0123
S11307C08F5F80937B018230C4F31FC082529140BB
S11307D00B97D8F410927B0180E090E280937A0129
S11307E0823064F492BB25E02A95F1F700008091F1
S11307F07A018F5F80937A018230A4F380917B0128
S11308008F5F80937B0189314CF380E882BB8AE05F
S11308108A95F1F700C0A5C1039709F067C08091DC
S11308207C0190917D0106978F32914008F0C1C2FE
S113083012BA89EF90E00E94880080E882BB9AE2B5
S11308409A95F1F700C082BB2AE12A95F1F700C01E
S113085080E282BB85E08A95F1F7000080917C01FB
S113086090917D018E3B9105F4F410927B0180E020
S113087020E890E280937A0182306CF422BB92BB30
S113088085E08A95F1F7000080917A018F5F80936B
S11308907A0182309CF380917B018F5F80937B018E
S11308A0843144F31CC0893C9105CCF010927B0147
S11308B080E080937A0182305CF495E09A95F1F7B8
S11308C0000080917A018F5F80937A018230ACF3CB
S11308D080917B018F5F80937B018E3154F380E89C
S11308E082BB2AE02A95F1F700C063C2C430D10567
S11308F009F037C180917C0190917D0106978F3278
S1130900914008F056C212BA89EF90E00E94880024
S113091080E882BB82BB82BB82BB90E292BB82BB7B
S113092092BB82BB92BB82BB92BB82BB92BB82BB9B
S113093092BB82BB92BB82BB92BB82BB92BB82BB8B
S113094092BB82BB92BB82BB92BB82BB92BB82BB7B
S113095092BB82BB92BB82BB92BB82BB80E28A9574
S1130960F1F780917C0190917D010A97D4F490E293
S113097092BB25E32A95F1F7000080E882BB92BB85
S113098025E32A95F1F7000082BB92BB25E32A9563
S1130990F1F7000082BB92BB95E09A95F1F7000055
S11309A082BBC0917C01D0917D01CE018897449790
S11309B0C8F461E688E290E00E94C80062E688E23A
S11309C090E00E94C80068E688E290E00E94C800B7
S11309D061E688E290E00E94C80069E788E290E05E
S11309E00E94C800CE01865491094497C8F461E678
S11309F086E490E00E94C80061E686E490E00E94EC
S1130A00C80068E686E490E00E94C80061E686E4D7
S1130A1090E00E94C80069E786E490E00E94C80064
S1130A20CE018F5591094497A0F461E38FE590E0DE
S1130A300E94430162E38FE590E00E94430163E377
S1130A408FE590E00E94430164E38FE590E00E940B
S1130A504301CE018D5791094497A0F465E38DE7D6
S1130A6090E00E94430166E38DE790E00E94430119
S1130A7067E38DE790E00E94430168E38DE790E02F
S1130A800E944301CE0186599109449750F469E3C9
S1130A9086E990E00E94430160E386E990E00E94C9
S1130AA04301CE01845B91094497C8F461E684EB69
S1130AB090E00E94C80062E684EB90E00E94C800C7
S1130AC068E684EB90E00E94C80061E684EB90E065
S1130AD00E94C80069E784EB90E00E94C800CE0140
S1130AE0825D91094497C8F461E682ED90E00E942A
S1130AF0C80062E682ED90E00E94C80068E682EDDC
S1130B0090E00E94C80061E682ED90E00E94C80077
S1130B1069E782ED90E00E94C800C05FD109649744
S1130B20C8F461E680EF90E00E94C80062E680EFBE
S1130B3090E00E94C80068E680EF90E00E94C80040
S1130B4061E680EF90E00E94C80069E780EF90E0E2
S1130B500E94C80080E882BB2AE02A95F1F700C011
S1130B6028C1259709F025C180917C0190917D01D0
S1130B7006978F32914008F01CC112BA8AEF90E0B8
S1130B800E94880080E882BB82BB82BB82BB20E1DA
S1130B9022BB90E992BB12BA92BB22BB12BA22BB0F
S1130BA092BB12BA12BA82BB85E08A95F1F70000B3
S1130BB080917C0190917D010A97D4F490E292BBDC
S1130BC025E32A95F1F7000080E882BB92BB25E378
S1130BD02A95F1F7000082BB92BB25E32A95F1F731
S1130BE0000082BB92BB95E09A95F1F7000082BBAE
S1130BF080917C0190917D018897449710F56091D4
S1130C008001605D88E290E00E944301609181016F
S1130C10605D88E290E00E94430180E882BB90E23C
S1130C2092BB92BB82BB60917F01605D88E290E0E1
S1130C300E94430160917E01605D88E290E00E9421
S1130C404301C0917C01D0917D01CE018F55910962
S1130C504497A0F461E38FE590E00E94430162E3CE
S1130C608FE590E00E94430163E38FE590E00E94EA
S1130C70430164E38FE590E00E944301CE018D5768
S1130C8091094497A0F465E38DE790E00E94430145
S1130C9066E38DE790E00E94430167E38DE790E00F
S1130CA00E94430168E38DE790E00E944301CE0176
S1130CB0865991094497A0F469E386E990E00E947B
S1130CC0430160E386E990E00E94430169E386E919
S1130CD090E00E94430160E386E990E00E944301B2
S1130CE0CE01845B91094497C8F461E684EB90E0FB
S1130CF00E94C80062E684EB90E00E94C80068E6A7
S1130D0084EB90E00E94C80061E684EB90E00E94CE
S1130D10C80069E784EB90E00E94C800CE01825DC0
S1130D209109449728F46EE682ED90E00E94430115
S1130D30CE01805F91094497C8F461E680EF90E0AA
S1130D400E94C80062E680EF90E00E94C80068E656
S1130D5080EF90E00E94C80061E680EF90E00E947E
S1130D60C80069E780EF90E00E94C800CE50D140EF
S1130D706497C8F461E68EE091E00E94C80062E6E0
S1130D808EE091E00E94C80068E68EE091E00E9447
S1130D90C80061E68EE091E00E94C80069E78EE039
S1130DA091E00E94C80080E882BB2AE02A95F1F70E
S1130DB000C0DF91CF9108951F920F920FB60F924A
S1130DC011242F933F934F935F936F937F938F934C
S1130DD09F93AF93BF93CF93EF93FF9380917C0145
S1130DE090917D010397ACF4C0E8C2BB89EF90E019
S1130DF00E94880012BA88EC90E00E948800C2BB6E
S1130E0089EF90E00E94880012BA88EC90E00E947A
S1130E10880080917C0190917D0103970497A8F448
S1130E2012BA89EF90E00E948800C0E8C2BB88EC47
S1130E3090E00E94880012BA89EF90E00E94880036
S1130E40C2BB88EC90E00E94880080917F018630CC
S1130E5038F010927F01809181018F5F809381012E
S1130E60809181018A3038F0109281018091800153
S1130E708F5F8093800180918001863010F0109202
S1130E80800185E090E00E94EC0280917C019091C9
S1130E907D01855391400397A8F412BA88EF90E03E
S1130EA00E948800C0E8C2BB89EF90E00E948800DD
S1130EB012BA88EF90E00E948800C2BB89EF90E0EC
S1130EC00E94880080917C0190917D01893391403A
S1130ED0C9F410927D0110927C0112BA88EF90E05F
S1130EE00E948800C0E8C2BB89EF90E00E9488009D
S1130EF012BA88EF90E00E948800C2BB89EF90E0AC
S1130F000E94880080917C0190917D0101969093CC
S1130F107D0180937C01809178018F5F80937801BB
S1130F20FF91EF91CF91BF91AF919F918F917F915D
S1130F306F915F914F913F912F910F900FBE0F9042
S1130F401F901895EE0FFF1F0590F491E02D099462
S1070F50F894FFCF3F
S1130F54A0A0A0A0A0A0A0E0E08080808080404069
S1130F6440202020E0E0E0A0A0A0A0A0E0E0E0A0D9
S1130F74A0A0A0A0A0E0E0E0E0E0E0A0A0A0A0A0E9
S1130F84E0E0E0E0A0A0A0A0A0A0A0A0A0A0A0A059
S1130F94A0A0A0A0E0E0E0E0A0A0A0A0A0A0A0A049
S1130FA4E0E0E0E0A0A0A0A0A0A0A0A0A0A0A0A039
S1130FB4E0E0E0E0E0E0A0A0A0A0A0A0E0E0E08009
S1130FC48080808080808080E0E0E0A0A0A0A0A059
S1130FD4A0E0E0E0A0A0A0A0A0E0E0E0E0E0E0E089
S1130FE480808080808080808080808080808080F9
S1130FF420202020202020202020E0E0A0A0A0A069
S1131004A0A0E0E0E0E0E0E02020202020E0E0E018
S1131014808080808080E0E0A0A0A0A0A0A0A0A008
S1131024A0E0E0E08080808080808080E0E0E08058
S11310348080808080E0E0E08080808080E0E0E068
S1131044E0E0E0E080808080E0E0E0E02020202018
S113105420E0E0E0404040404040404040404040C8
S10B106440404040E0E0E0E000
S9030000FC
