:100000000C942A000C9434000C9434000C943400AA
:100010000C9434000C9434000C9434000C94340090
:100020000C9434000C9434000C9434000C94340080
:100030000C9434000C9434000C9434000C94340070
:100040000C9434000C9434000C9434000C94340060
:100050000C94340011241FBECFE5D8E0DEBFCDBF25
:100060000E9436000C944D000C9400008FEF81BB71
:100070002FEF83ED90E3215080409040E1F700C0E6
:10008000000082E082BB2AE62A95F1F700C012BA8E
:0E0090009AE69A95F1F700C0F5CFF894FFCFED
:00000001FF
